:020000040800F2
:1000000008F000203903000859B30008AD82000849
:10001000E9B100085F1A00081D0701080000000090
:10002000000000000000000000000000790200084D
:10003000C12E000800000000D502000825D40008E9
:100040005303000853030008530300085303000838
:100050005303000853030008530300085303000828
:100060005303000853030008B13400085303000889
:1000700091290008530300085303000853030008A4
:1000800053030008530300085303000853030008F8
:10009000651A00085303000853030008BB34000826
:1000A0005303000821D50008530300085303000838
:1000B00053030008530300085303000853030008C8
:1000C00053030008530300085303000853030008B8
:1000D00053030008530300085303000811DD000810
:1000E0005303000853030008530300085303000898
:1000F0005303000853030008530300085303000888
:100100005303000853030008530300085303000877
:100110005303000853030008530300085303000867
:10012000A1290008B129000853030008C1290008CB
:100130005303000853030008530300085303000847
:10014000751A000853030008530300085DB3000844
:1001500053030008D12900085303000825DD0008D7
:100160005303000853030008530300085303000817
:100170005303000853030008530300080000000065
:10018000530300085303000800F002F800F064F87D
:100190000AA090E8000C82448344AAF10107DA45E2
:1001A00001D100F059F8AFF2090EBAE80F0013F0D0
:1001B000010F18BFFB1A43F0010318473C990100D7
:1001C0005C99010010F8013B0A4413F0030408BFD6
:1001D00010F8014B1D1108BF10F8015B641E05D01B
:1001E00010F8016B641E01F8016BF9D1002D15D0D8
:1001F00010F8014B03F00C030C2BA1EB04040ABF15
:1002000010F8013BA4EB8314A4EB032405F10103D4
:1002100014F8016B5B1E01F8016BF9D5914238BFF0
:1002200010F8013BD1D3704700230024002500269D
:10023000103A28BF78C1FBD8520728BF30C148BF49
:100240000B6070471FB517F022FC9DE8030000F01B
:10025000B5FF1FBD10B510BD01F034F81146FFF712
:10026000F1FF14F0DDFB01F052F803B4FFF7F2FFE9
:1002700003BC01F089F800002C4B19680868B0E84D
:10028000F04F80F30988BFF36F8F4FF0000080F3C9
:10029000118870470000000008480068006880F37B
:1002A00008884FF0000080F3148862B661B6BFF38F
:1002B0004F8FBFF36F8F00DF00BF00BF08ED00E07E
:1002C000DFF80C00016841F470010160704700BF65
:1002D00088ED00E0EFF30980BFF36F8F134B1A68CE
:1002E0001EF0100F08BF20ED108A20E9F04F1060BB
:1002F00009B44FF0500080F31188BFF34F8FBFF364
:100300006F8F15F0F5FC4FF0000080F3118809BCE9
:1003100019680868B0E8F04F1EF0100F08BFB0EC85
:10032000108A80F30988BFF36F8F70479400002014
:10033000EFF30580704700000948804709480047EF
:10034000FEE7FEE7FEE7FEE7FEE7FEE7FEE7FEE785
:10035000FEE7FEE704480549054A064B70470000E2
:100360000DD500088901000808B0002008F0002021
:1003700008D0002008D000209FED1A1AF5EE000AE0
:1003800040EE010ABDEEE00AF5EEC00A10EE100ADA
:10039000F1EE10FA38BF401E00EE100A1349F7EED6
:1003A000001AB8EEC00A30EEC00ADFED0F0A20EEE8
:1003B000200AFCEEC00A10EE900AC0F3080000EE1E
:1003C000900A01EB8000F8EE600A90ED011A70EEE1
:1003D000600A90ED000A71EEE01A21EE800A00EE4C
:1003E000810A704783F9223E000000448090010892
:1003F000B5EEC00AF1EE10FA07D2DFED1E0AB4EE38
:10040000E00AF1EE10FAA8BF7047DFED1B0AB5EE67
:10041000C00A60EE200ABDEEE01A11EE100AF1EEFD
:1004200010FA38BF401E00EE100A1549F7EE001A08
:10043000B8EEC00A30EEC00ADFED100A60EE200A06
:10044000BCEEE00A10EE100AC0F3080000EE100A3D
:1004500001EB8000B8EE400A90ED011A70EEC00A80
:1004600090ED000A71EEE01A21EE800A00EE810A9A
:1004700070470000CD024CB483F9223E00000044D6
:100480008090010870B405880E884468D1F804C0D3
:100490005368B54208D140884988884201BF118815
:1004A0008D425188884203D070BC6FF002007047C3
:1004B00005FB00F1880827D094ED001ADCED000A56
:1004C00094ED010ADCED011A31EE201AD4ED020A96
:1004D00070EE211A9CED020A83ED001AC3ED011A99
:1004E00094ED031ADCED031A30EE800A401E71EE23
:1004F000210A83ED020A04F11004C3ED030A03F19B
:1005000010030CF1100CD7D111F0030030D0B0F172
:10051000004F30D200282BDD211F1B1FACF104023D
:1005200010F0010F0AD091ED010AD2ED010A091D68
:10053000121D30EE200A83ED010A1B1D400817D062
:1005400091ED010AD2ED010A401E30EE200A83ED42
:10055000010A91ED020AD2ED020A01F1080102F14D
:10056000080230EE200A83ED020A03F10803E7D106
:1005700070BC00207047B4EC010A401EFCEC010A7C
:1005800030EE200AA3EC010AF5D1F1E701804280A8
:10059000436070472DE9F34F84B0049840680090A1
:1005A000486801900498B0F800E04588DFEDFE0A45
:1005B00000200290B0EE600AAE4506D10888498856
:1005C000884204BF7146864504D06FF0020006B031
:1005D000BDE8F08F01985FEA010C18BFB7EE001A72
:1005E0003DD000BFBEEB0C0117D0B1F1004F80F041
:1005F0001F82002911DD021F11F0010F1CBFC2ED87
:10060000010A121D4B1006D0C2ED010AC2ED020A0A
:1006100008325B1EF8D100EB8100BCF10102A0ECB6
:10062000011A19D0B2F1004F80F00882002A13DDC0
:10063000031F12F0010F1CBFC3ED010A1B1D511057
:1006400008D000BFC3ED010AC3ED020A491E03F141
:100650000803F7D100EB8200BCF1010CC2D14FF0CE
:1006600000080395002D14BFB0EE602A002000F0B2
:10067000BF8100BF009908FB05F001EB800B0199D9
:10068000DBED002A01EB80000346F0EE421AC6457E
:1006900052D9AEEB0802ABEB850112F0010F17D077
:1006A00001EB850191ED000AB5EEC00AF1EE10FAFA
:1006B00007DDB4EEE10AF1EE10FA09DDF0EE401AC2
:1006C00006E0B1EE400AF4EEC01AF1EE10FAF5D3EE
:1006D000521031D001EB850C9CED000AB5EEC00A3A
:1006E000F1EE10FA05DDB4EEE10AF1EE10FA09DDE3
:1006F00006E0B1EE400AF4EEC01AF1EE10FA01D2B3
:10070000F0EE401A01EBC50191ED000AB5EEC00A0A
:10071000F1EE10FA05DDB4EEE10AF1EE10FA09DDB2
:1007200006E0B1EE400AF4EEC01AF1EE10FA01D282
:10073000F0EE401A521ECDD1F5EEC01AF1EE10FACD
:1007400000F07381F5EEC02A0126F1EE10FA00994F
:10075000D4BFB1EE620AB0EE620AB4EE610AF1EE05
:1007600010FA1CBFAEEB0802B2F1010C47D005FB3A
:1007700008F201EB820292ED001A00BFB0EE410ACE
:1007800005FB06F4B5EEC00A00EB8404F1EE10FAA6
:10079000CCBFF0EE400AF1EE400AF4EE610AF1EE51
:1007A00010FA28D1B5EB080C11D0BCF1004F7DD266
:1007B000BCF1000F0BDD00BF92ED000AD1ED000A85
:1007C000BCF1010CE2EC010AA1EC010AF4D1290010
:1007D0000ED0B1F1004F6AD2002909DD94ED000A74
:1007E000D0ED000A491EE4EC010AA0EC010AF5D1A3
:1007F000012002900BE0761CBCF1010CBED10298E6
:10080000012804D0F5EEC02AF1EE10FA7ED09BED5F
:10081000000AB5EB08009A465946064622D0B0F1C8
:10082000004F74D200281DDD091F10F0010F06D003
:10083000F0EE400A80EEA01A81ED011A091D401069
:1008400010D000BFD1ED010A401E80EE801A81ED6C
:10085000011A91ED021AC1EE000AC1ED020A01F17E
:100860000801EFD1280026D0B0F1004F7ED2002839
:1008700021DDAAF1040110F0010F06D0D1ED010A2B
:1008800080EE801A81ED011A091D401013D000BFBF
:10089000D1ED010A401E80EE801A81ED011AD1EDE2
:1008A000020A80EE801A81ED021A01E0CBE0D6E068
:1008B00001F10801ECD1DDE900124FF000095FEA17
:1008C0000E0773D0C14504BF01EB860102EB850220
:1008D00074D091ED000ADC465046331E35D01C46DC
:1008E000B6F1004F7ED2002C2FDD0B1FABF1040CB4
:1008F00016F0010F0FD0F0EE400ADCED011AB0EE59
:10090000601A00EEE11A83ED011A01E08DE0B1E01A
:100910001B1D0CF1040C741015D000BFD3ED010A9F
:100920009CED011A40EE410AC3ED010AD3ED020A23
:100930009CED021A0CF1080C40EE410AC3ED020ACC
:100940000833641EEAD101EB86012B0036D0B3F1E7
:10095000004F72D2002B31DDA2F1040CAAF1040089
:1009600013F0010F0CD0DCED010A00E08BE090EDFC
:10097000011A001D40EE410ACCED010A0CF1040CF5
:100980005C1019D0DCED010A90ED011A40EE410A2D
:10099000CCED010ADCED020A90ED021A083040EEBF
:1009A000410ACCED020A03E0000000000DE005E082
:1009B000641E0CF1080CE5D102EB830201EB880107
:1009C0007F1E09F101097FF47DAF009808F101084D
:1009D000001D00900398401E03907FF44BAE0299D7
:1009E000012900E058E004BF06B0BDE8F08F00BF69
:1009F000B5EEC00AF1EE10FA7FF4E9AD04990EFBF2
:100A000005F3002B4A684FF000010BD902EB810C73
:100A10009CED000AB5EEC00AF1EE10FA02D1491CB5
:100A20008B42F3D88B427FF4D2AD6FF00400CEE559
:100A3000E0EC010A491EFBD1EFE538E0E0EC010AE9
:100A4000521EFBD108E692ED000AD1ED000ABCF17E
:100A5000010CE2EC010AA1EC010AF4D1B7E694ED35
:100A6000000AD0ED000A491EE4EC010AA0EC010ADC
:100A7000F5D1BDE6D1ED000A401E80EE801AA1EC52
:100A8000011AF7D1EEE6D3ED000A401E80EE801A7F
:100A9000A3EC011AF7D10EE7BCEC011AD1ED000A64
:100AA0005B1E40EE410AE1EC010AF5D14DE7B0ECE6
:100AB000011AD2ED000A5B1E40EE410AE2EC010A87
:100AC000F5D17BE72DE9F04F82B04668536801937A
:100AD000058847884B88002000900888874201BF1E
:100AE000B2F800C06545528893421EBF6FF0020005
:100AF00002B0BDE8F08F9FED412A4FEA970EC7F391
:100B0000400B00BFDDE9000202EB800A4A6898460C
:100B10004FF00009B0EE420AB4465FEA0E0025D05D
:100B200092ED001ADCED001A02EB8302DCED010A03
:100B300001EE810A92ED001A02EB8302401ED2ED13
:100B4000001A02EB830200EE810A9CED021ADCED32
:100B5000030A00040CF1100C000C01EE210A92EDC6
:100B6000001A02EB830200EE810AD9D117F00300CC
:100B700026D0ACF10404A2EB830210F0010F08D0E0
:100B800002EB8302D4ED010A92ED001A241D00EE5F
:100B9000810A5FEA0B0013D002EB830CD4ED010A4B
:100BA0009CED001A02EBC302401E00EE810AD4ED58
:100BB000020A92ED001A04F1080400EE810AEBD15A
:100BC00009F10100AAEC010A1FFA80F9486800EB5C
:100BD0008902A8F101001FFA80F8B8F1000F99D13D
:100BE000009806EB8706184480B20090681E050442
:100BF0002D0C87D102B00020BDE8F08F000000006E
:100C000070B405880E884468D1F804C05368B542B2
:100C100008D140884988884201BF11888D42518897
:100C2000884203D070BC6FF00200704705FB00F1F2
:100C3000880827D094ED001ADCED000A94ED010A33
:100C4000DCED011A31EE601AD4ED020A70EE611A81
:100C50009CED020A83ED001AC3ED011A94ED031A0C
:100C6000DCED031A30EEC00A401E71EE610A83ED1E
:100C7000020A04F11004C3ED030A03F110030CF19E
:100C8000100CD7D111F0030030D0B0F1004F30D2AA
:100C900000282BDD211F1B1FACF1040210F0010FF7
:100CA0000AD091ED010AD2ED010A091D121D30EEA4
:100CB000600A83ED010A1B1D400817D091ED010A5F
:100CC000D2ED010A401E30EE600A83ED010A91ED7B
:100CD000020AD2ED020A01F1080102F1080230EE27
:100CE000600A83ED020A03F10803E7D170BC00201B
:100CF0007047B4EC010A401EFCEC010A30EE600AB9
:100D0000A3EC010AF5D1F1E72DE9F04F028847681D
:100D1000B0F802804888D1F8049082B04FF0000A01
:100D20001646824207BF098888456FF0020002B06C
:100D300018BFBDE8F08F4FEA980B02EB420001901C
:100D4000C8F34000CDF8000009EB8A01BBF1000FA9
:100D500033D0019801EB820C01EB80043B46E64660
:100D600001EBC2054FEA0B0093ED000A401E81ED36
:100D7000000A93ED010A01EB02118CED000A93EDDC
:100D8000020A0CEB021C85ED000A93ED030A05EB49
:100D9000021584ED000A04EB021403F11003E3D101
:100DA0000EEB820000EB820000EB8201ABF1010050
:100DB000504307EB0B1701EB001118F0030C21D087
:100DC0003B1FA1EB82011CF0010F06D093ED010A3D
:100DD00001EB82011B1D81ED000A009880B100BF6C
:100DE00093ED010A01EB820401EBC20184ED000ADC
:100DF00093ED020A401E81ED000A03F10803EFD1D2
:100E000007EB8C070AF101001FFA80FA701E060436
:100E1000360C99D102B00020BDE8F08F70B50646BF
:100E200000F0B0F9056806F10B0020F00704B442A9
:100E30009CBF002070BD2B466A68BAB11068A04202
:100E400010D304F1080188423CBF5068586007D3B2
:100E50005168101941601168091B016058601460E5
:100E6000101D70BD13465268002AE7D1214628465E
:100E700000F090F90028DED170BD70B50446051F62
:100E800000F080F90068002C14BF446870BD002C8D
:100E900018BFAC423CBF20466468F8D301680A180A
:100EA000AA4218BF456003D12A6805461144016073
:100EB00028684119A1421CBF6C6070BD61686960FF
:100EC00021680844286070BD53EA020C00F0698074
:100ED0002DE9F04B4FF00006002B1FBFB3FA83F54E
:100EE00003FA05F424FA05F65E4012BF1643B2FA7F
:100EF00082F502FA05F4C5F120051EBF22FA05FCB1
:100F000044EA0C04203556EA044C4FEA144418BF56
:100F1000641C4FF000084FF00009904271EB030C85
:100F200039D3002919BFB1FA81F701FA07F6B0FAEF
:100F300080F700FA07F6C7F120071EBF20FA07FC6A
:100F400046EA0C062037B6FBF4FCA7EB0507103F7A
:100F500007F01F0BCBF120060CFA0BFB2CFA06F660
:100F600044BFB3460026202FA4BF5E464FF0000BBF
:100F70005BEA060C08BF4FF0010B19EB0B09ABFB4A
:100F8000027C48EB0608C01B06FB02CC0BFB03CC23
:100F900071EB0C01C1E70B46024641464846BDE8ED
:100FA000F08B13B54FF000004FF00001AFF300805D
:100FB000BDE81C40704740EA0103024630B59B077C
:100FC00010D14FF0013400E008C208C91D1B9D4339
:100FD00015EAC41FF8D013F0FF0102F8011B0DD071
:100FE0001B0AF8E711F8013B002B02F8013B05D082
:100FF00011F8013B002B02F8013BF3D130BD032A6D
:1010000040F2308010F0030C00F0158011F8013B25
:10101000BCF1020F624498BF11F801CB00F8013B0C
:1010200038BF11F8013BA2F1040298BF00F801CBD0
:1010300038BF00F8013B11F0030300F02580083AA7
:10104000C0F0088051F8043B083A51F804CBA0E8FE
:101050000810F5E7121D5CBF51F8043B40F8043B53
:10106000AFF30080D20724BF11F8013B11F801CB88
:1010700048BF11F8012B24BF00F8013B00F801CB59
:1010800048BF00F8012B704710B5203AC0F00B8024
:10109000B1E81850203AA0E81850B1E81850A0E87C
:1010A0001850BFF4F5AF5FEA027C24BFB1E81850D6
:1010B000A0E8185044BF18C918C0BDE810405FEA46
:1010C000827C24BF51F8043B40F8043B08BF7047C2
:1010D000D20728BF31F8023B48BF11F8012B28BFC7
:1010E00020F8023B48BF00F8012B70474FF0000288
:1010F0000429C0F0128010F0030C00F01B80CCF12A
:10110000040CBCF1020F18BF00F8012BA8BF20F897
:10111000022BA1EB0C0100F00DB85FEAC17C24BFEB
:1011200000F8012B00F8012B48BF00F8012B704795
:101130004FF0000200B5134694469646203922BF70
:10114000A0E80C50A0E80C50B1F12001BFF4F7AFBB
:10115000090728BFA0E80C5048BF0CC05DF804EB9D
:10116000890028BF40F8042B08BF704748BF20F80B
:10117000022B11F0804F18BF00F8012B7047704709
:101180007047704700487047B0AF00207047704705
:101190007047704738B504460A4600206946AFF3E9
:1011A0000080002808BF38BD02460099204600F0A4
:1011B0004FF8012038BD012000F07CB8F8B5AFF33E
:1011C0000080054600200C46102000BF0646A819E6
:1011D000A0420DD9324669460020AFF300800700D7
:1011E00008BF00F067F80098A04218BF0546C41970
:1011F000FFF7C8FF05600746F01D20F007004619FD
:10120000284600F00AF8B44208BFF8BDA21B3146D8
:101210003868BDE8F84000F01BB800210160C0E963
:10122000011070471020704710B500F00DF80068ED
:1012300010BD10B5044600F007F8046010BD0000B2
:1012400000487047A8AF002000487047A8AF0020B2
:10125000034640688C46002818BF88423CBF0346BE
:101260004068F8D318681844884207D00CF103008E
:1012700020F00700001D411A521A0146081D0A609D
:10128000FFF7FBBD1FB584B000200A9C06AB04AA83
:1012900002A90094AFF3008018B1DDE9020108B0A3
:1012A00010BD0348204000F040F800200146F6E75A
:1012B0000000207C10B500F03FF8BDE8104000F0C1
:1012C0002FB870477546FFF7BBFFAE46050069466D
:1012D000534620F00700854618B020B5FFF73AF8CE
:1012E000BDE820404FF000064FF000074FF0000827
:1012F0004FF0000B21F00701AC46ACE8C009ACE8A8
:10130000C009ACE8C009ACE8C0098D46704710B50B
:101310000446AFF300802046BDE81040FEF7A5BFAD
:10132000002801D000F030B8704710B500F04CF83C
:10133000BDE81040FFF7F4BF10B5012805D000212B
:1013400003A000F027F8012010BD09A1F8E7000074
:1013500053494752544D454D3A204F7574206F669E
:101360002068656170206D656D6F72790000000006
:101370003A2048656170206D656D6F727920636FEA
:10138000727275707465640001491820ABBEFEE787
:101390002600020070B505460C460A2000E06D1CD0
:1013A00000F068F835B128780028F8D102E0641C14
:1013B00000F060F814B120780028F8D1BDE8704042
:1013C0000A2000F057B8000010B5022803D04101F0
:1013D00003D50DA112E0002010BD010101D50FA120
:1013E0000CE0C10001D511A108E0810001D512A1D6
:1013F00004E0400001D513A100E0002115A0FFF793
:10140000C9FF012010BD0000496E76616C6964203F
:101410004F7065726174696F6E000000446976698F
:101420006465204279205A65726F00004F766572BC
:10143000666C6F7700000000556E646572666C6FB5
:1014400077000000496E657861637420526573759A
:101450006C7400005349474650453A204172697404
:10146000686D6574696320657863657074696F6E13
:101470003A20000008B569468DF800000320ABBE95
:1014800008BD000010B501221021024804F010F937
:1014900010BD00000000024010B5002210210248DB
:1014A00004F006F910BD00000000024010B5012252
:1014B0001146024804F0FCF810BD00000004024090
:1014C00010B500220121024804F0F2F810BD00001E
:1014D000000402401CB50446002000900190FFF774
:1014E000DBFF922000F0A2F906226946122000F0EC
:1014F0007DF9FFF7C7FF9DF80100000200B29DF8DB
:10150000001008438E4908800846B0F9000000EE3C
:10151000100AB8EEC00A8B48D0ED000A20EE200A6F
:10152000D4ED080A20EE200A84ED000A9DF803009D
:10153000000200B29DF80210084381490880084665
:10154000B0F9000000EE100AB8EEC00A7D48D0EDF8
:10155000000A20EE200AD4ED080A20EE200A84EDCD
:10156000010A9DF80500000200B29DF8041008432E
:10157000734908800846B0F9000000EE100AB8EE82
:10158000C00A7048D0ED000A20EE200AD4ED080A07
:1015900020EE200A84ED020AFFF792FF0822694636
:1015A000002000F023F9FFF781FF9DF800000F28CD
:1015B0004FD165480078E8B39DF80300000200B2FF
:1015C0009DF8021008435E49088094ED090A084618
:1015D000B0F9000000EE900AF8EEE00A5B4890EDEA
:1015E000001A10EE810A84ED030A9DF8050000023E
:1015F00000B29DF8041008435149088094ED0A0A8E
:101600000846B0F9000000EE900AF8EEE00A4F48F4
:1016100090ED001A10EE810A84ED040A9DF807008F
:10162000000200B29DF8061008434549088094ED79
:101630000B0A00E00EE00846B0F9000000EE900A48
:10164000F8EEE00A414890ED001A10EE810A84EDB0
:10165000050A44E09DF80300000200B29DF8021064
:101660000843374908800846B0F9000000EE100A28
:10167000B8EEC00A3548D0ED000A20EE200A84ED0D
:10168000030A9DF80500000200B29DF8041008430B
:101690002B4908800846B0F9000000EE100AB8EEA9
:1016A000C00A2A48D0ED000A20EE200A84ED040A80
:1016B0009DF80700000200B29DF80610084320497B
:1016C00008800846B0F9000000EE100AB8EEC00A23
:1016D0001E48D0ED000A20EE200A84ED050AFFF72F
:1016E000DBFEA22000F0A2F802226946222000F0D0
:1016F0007DF8FFF7C7FE9DF80000C0009DF80110BF
:1017000040EA61100E4908800846B0F90000B0F5C3
:10171000806F05DB08460088A0F5006000B20880F5
:101720000748B0F9000000EE100AF8EEC00AB4EE67
:10173000001AB3EE070A00EE810A84ED070A1CBD09
:10174000DA0D00209C0D0020AC0D0020A00D002023
:1017500070B504460D461C48046000201B49087003
:1017600012F07CFA1949097808431849087012F0F8
:101770002BFB164909780843144908701DB1144819
:1017800000F072FB1CE09FED130A114880ED090A7E
:101790009FED110A80ED0A0A9FED100A80ED0B0AF9
:1017A0009FED0F0A80ED0C0A90ED0C0ADFED0D0A9B
:1017B00080EE801A80ED081A9FED0B0A80ED060A74
:1017C0000248007870BD0000DC0D0020A60D00204E
:1017D0000CAD00209A0AB03B53F92EBBB0ECA9BA6D
:1017E000B3D61B41C3F51C410000204270B506462C
:1017F0000C46154646F0800000F018F806E055202B
:1018000000F014F82070641C681EC5B2002DF6D1DB
:1018100070BD70B504460D4644F0800000F006F837
:10182000552000F003F8287070BD000001B582B0AB
:101830004FF47A70012301AA02A9009003480068BE
:1018400005F0EEFB9DF804000EBD0000DC0D00204D
:1018500070B505460C462846FFF7E8FF2046FFF71F
:10186000E5FF70BD70B504460D4661190F2204F501
:101870008070FFF7C4FB0F2104F580700EF074FF39
:1018800001280ED1D4F8072104F2B510C4F8B5210F
:10189000B4F80B11A4F8B911002140F2BB100155A6
:1018A00003E0012140F2BB10015570BD024691F8E2
:1018B0003100032802DA91F8320008B9002070479D
:1018C000B1F93600904205DAD1F83A00401CC1F86F
:1018D0003A000DE0B1F936004042904205DDD1F802
:1018E0003A00401CC1F83A0002E00020C1F83A007A
:1018F000D1F83A00B1F93830984201DD0120DEE735
:101900000020DCE7D2ED020A92ED021AB6EE000AE0
:1019100000EEC10AD2ED030A92ED031A00EEC10AED
:10192000D0ED000A20EE200AD2ED010A92ED021A53
:1019300060EE810A92ED001AD2ED031A41EE610ABF
:1019400090ED011A00EE810AD2ED010A92ED031A20
:1019500060EE810A92ED001AD2ED021A41EE210AE0
:1019600090ED021A00EE810AF0EE000A20EE200A45
:1019700081ED000A92ED010AD2ED020A20EE200A62
:10198000D2ED000A92ED031A00EE810AD0ED000AB2
:1019900060EE200A92ED011AD2ED011AB6EE000AAD
:1019A00001EE610AD2ED031A92ED032AB0EE401A5D
:1019B00001EEC21AD0ED011AB0EE600A01EE210A62
:1019C000D2ED020A92ED031A60EE810A92ED001A3E
:1019D000D2ED011A41EE610A90ED021A00EE810A81
:1019E000F0EE000A20EE200A81ED010A92ED010AD4
:1019F000D2ED030A20EE200AD2ED000A92ED021A7F
:101A000000EEC10AD0ED000A20EE200AD2ED020A53
:101A100092ED031A60EE810A92ED001AD2ED011ADE
:101A200041EE210A90ED011A00EE810A92ED011AB1
:101A3000D2ED011AF6EE000A41EE610A92ED021AA9
:101A4000D2ED021A41EE610A90ED021A00EE810A0F
:101A5000F0EE000A20EE200A81ED020A704700BF76
:101A6000FEE7000010B5024802F0E8FF10BD0000DC
:101A70006411002010B5024802F0E0FF10BD000024
:101A80008C11002078B506460D461446A4F82B604C
:101A900004F12500A4F82750B4F9340095FBF0F0C8
:101AA00000EE100AB8EEC00ADFED460A20EE200A6A
:101AB000F0EE000A60EE200AA06800EE100AB2EE16
:101AC000041AC0EE011A60EEA10A9FED3F1A80EEE3
:101AD000810A10EE100A2061B4F82700B4F825102E
:101AE000401A00B2A4F82900B4F82700A4F8250091
:101AF000206900EE100AE06800EE900A30EE600AFD
:101B000010EE100A60612069E06094F8240048B982
:101B10000120641DE077E08C2085B4F9260044F8AC
:101B2000010C641FB4F82B20B4F82D30D21A10B277
:101B3000B4F92F1010F0C6FC0090206800990844FA
:101B400020606068009908446060B4F82B00A4F835
:101B50002D00A08EB4F82F1010FB01F000EE100A3B
:101B6000F8EEC00A606800EE100AB8EEC01A81EE06
:101B7000200ADFED160A20EE200A10EE100AE061BE
:101B8000A08EB4F82F1010FB01F000EE100AF8EE52
:101B9000C00A206800EE100AB8EEC01A81EE200AD2
:101BA000DFED0A0A20EE200A10EE100A206221461C
:101BB000009800B2FFF77AFE84F83300002000900E
:101BC00078BD0000D00F4940000070420000B443CF
:101BD0000346042B15D007DC7BB1012B0ED0022B62
:101BE0000DD0032B12D10BE0202B0BD0212B0AD0D0
:101BF000222B09D0232B09D107E008E007E006E0FB
:101C000005E004E003E002E001E000E000BF00BF07
:101C1000002070470020704710B500220449054895
:101C20000CF025FB044903480CF012FB002010BD0A
:101C3000B8220020DC150020B81A002070B5044638
:101C40000D46214609480CF003FB08480CF0CCFA7D
:101C500007480068006A30B105492A680968086ABF
:101C6000214612F0C0FB002070BD0000DC150020F2
:101C7000900A002010B503460C460021084610BD0E
:101C80002DE9F04104460D4600260A48D0F8BC7202
:101C9000D7F8140210B10120BDE8F0812A46214690
:101CA00004480CF0E4FA03480CF094FB0646304676
:101CB000F2E70000DC15002070B504460D466119FE
:101CC000152204F58070FFF79AF9152104F580704C
:101CD0000EF04AFD012810D1D4F80721C4F80822DB
:101CE000D4F80B21C4F80C22D4F80F11C4F8101248
:101CF00000214FF40570015503E001214FF40570F8
:101D0000015570BD70B504460D466119132204F5E6
:101D10008070FFF774F9132104F580700EF024FD34
:101D2000012812D1D4F8072104F22220C4F822227B
:101D3000D4F80B21C4F82622B4F80F11A4F82A1203
:101D400000214FF40B70015503E001214FF40B709B
:101D5000015570BD10B538212A48FFF7E9F92A4B23
:101D60002A4A3C212AA00BF005F92F4908602F4B85
:101D70002F4A4FF4FA712FA00BF0FCF83449086099
:101D8000344B01220021104601F006F9324B40F29B
:101D900004420021012001F0FFF8304B40F266625E
:101DA0000021012001F0F8F812F0CAFD1549886001
:101DB00012F0CCFD1349C8600AF0DAFA1149086143
:101DC00002200969C87201F047FF0E4948610020EE
:101DD00008764876012081F83000002081F8340030
:101DE00081F8350081F836009FED1D0A084680ED28
:101DF000000A4FF49650488612F0B6FD1949086063
:101E000010BD0000389F0020AD400108454001088A
:101E1000447231365F46726F6D5F436861737369F8
:101E2000735F536166650000BC0C0020912E0008B2
:101E3000812E00084465616C5F50697463685F4C73
:101E4000696D69745F4D6F72655F5361666500000F
:101E5000C80C0020552D0008952E0008512E0008B2
:101E600000000000B40C002070B52DED048B88B08C
:101E7000044600200690079000F0A6FEFE4880ED84
:101E8000000A00BF00F0A0FEFB48D0ED000A30EED3
:101E9000600AF2EE040AB4EEE00AF1EE10FA14DD84
:101EA0009FEDF60A84ED090A9FEDF50A84ED0A0A12
:101EB0009FEDF40A84ED0B0A9FEDF30A84ED0C0A02
:101EC0009FEDF20A84ED060A57E29FEDF10A00F059
:101ED0000FFE9FEDF00A84ED0C0A9FEDEE0A84EDF3
:101EE000090A9FEDEC0A84ED0A0A9FEDEA0A84EDE7
:101EF0000B0A002673E1FFF7CFFA9220FFF796FC5A
:101F0000062206A91220FFF771FCFFF7BBFA9DF825
:101F10001900000200B29DF8181040EA010500EE19
:101F2000105AB8EEC00ADC48D0ED000A20EE200AB4
:101F300084ED000A9DF81B00000200B29DF81A1003
:101F400040EA010500EE105AB8EEC00AD248D0EDC2
:101F5000000A20EE200A84ED010A9DF81D0000020F
:101F600000B29DF81C1040EA010500EE105AB8EED0
:101F7000C00AC948D0ED000A20EE200A84ED020A0A
:101F8000D4ED000A60EEA00A94ED011AD4ED011A16
:101F900041EE210A94ED021AD4ED021A41EE210A13
:101FA000B0EE600A0FF02CFEB0EE408A94ED0C0A01
:101FB00030EE080A84ED0C0AFFF782FA082206A91F
:101FC0000020FFF713FCFFF771FA9DF818000F28A7
:101FD00050D19DF81B00000200B29DF81A1040EA93
:101FE000010500EE105AB8EEC00AAC48D0ED000A68
:101FF00020EE200A84ED030A94ED090AD4ED030AC9
:1020000030EE200A84ED090A9DF81D00000200B29E
:102010009DF81C1040EA010500EE105AB8EEC00A07
:102020009E48D0ED000A20EE200A84ED040A94EDCB
:102030000A0AD4ED040A30EE200A84ED0A0A9DF85B
:102040001F00000200B29DF81E1040EA010500EEDC
:10205000105AB8EEC00A9148D0ED000A20EE200ACE
:1020600084ED050A94ED0B0AD4ED050A30EE200A42
:1020700084ED0B0A06BBF0EE488AB0EE489A0020C9
:1020800017E004F10C0101EB800191ED000A03A9B6
:1020900001EB800181ED000A04F10C0101EB8001EC
:1020A00091ED000A694601EB800181ED000A411CB7
:1020B000C8B20328E5DB49E0B4EEE88AF1EE10FA95
:1020C00001DDF0EE488AB4EEC98AF1EE10FA01D2D1
:1020D000B0EE489A002037E004F10C0101EB8001DA
:1020E00091ED000A03A901EB8001D1ED000AB4EEE5
:1020F000E00AF1EE10FA0ADD04F10C0101EB8001B7
:1021000091ED000A03A901EB800181ED000A04F1C1
:102110000C0101EB800191ED000A694601EB8001A1
:10212000D1ED000AB4EEE00AF1EE10FA0AD204F1A1
:102130000C0101EB800191ED000A694601EB800181
:1021400081ED000A411CC8B20328C5DB38EEC90A7C
:10215000534880ED000A002012E003A901EB800142
:1021600091ED000A694601EB8001D1ED000A30EEE5
:10217000600A4C4901EB800181ED000A411CC8B2A4
:102180000328EADB464890ED000AF6EE000AB4EEBA
:10219000E00AF1EE10FA1BDC424890ED000ADFED98
:1021A000420AB4EEE00AF1EE10FA11DC90ED010AF9
:1021B000DFED3D0AB4EEE00AF1EE10FA08DC90ED36
:1021C000020ADFED390AB4EEE00AF1EE10FA00DDA2
:1021D0000AE09FED360A00F08BFC701C86B2344892
:1021E00000888642FFF687AE00BFD4ED0C0A304867
:1021F000008800EE100AB8EE400A80EE801A84EDE6
:102200000C1A002015E004F1240101EB8001D1ED4E
:10221000000A2749098800EE101AB8EE400A80EE3D
:10222000801A04F1240101EB800181ED001A411CA8
:10223000C8B20328E7DBFFF72FF9A220FFF7F6FA71
:10224000022206A92220FFF7D1FAFFF71BF99DF819
:102250001800C0009DF8191040EA6115B5F5806FAF
:1022600002DBA5F5006005B200EE105AF8EEC00AD8
:10227000B4EE001A1EE00000D40D00209A0AB03B14
:1022800053F92EBBB0ECA9BAB3D61B4100002042D3
:102290000AD7A33B000000009C0D0020A00D0020E9
:1022A000A80D002000AD00209A99193E6F12033A44
:1022B000D80D0020B3EE070A00EE810A84ED060A6D
:1022C00034480088401C00B232490880324890ED02
:1022D000000AF6EE000AB4EEE00AF1EE10FA3FF75B
:1022E000D1AD94ED0C0ADFED2D0A30EE600AB0EEB0
:1022F000C00AF6EE000AB4EEE00AF1EE10FAEEDCE7
:10230000274890ED000A5FED180AB4EEE00AF1EEFE
:1023100010FAE4DC90ED010A5FED1D0AB4EEE00A6C
:10232000F1EE10FADBDC90ED020A5FED210AB4EE6B
:10233000E00AF1EE10FAD2DC94ED090AB0EEC00A20
:10234000DFED180AB4EEE00AF1EE10FAC7DC94ED06
:102350000A0AB0EEC00ADFED130AB4EEE00AF1EEAD
:1023600010FABCDC94ED0B0AB0EEC00ADFED0D0AEA
:10237000B4EEE00AF1EE10FAB1DC00BF94ED0C0A05
:10238000DFED090A80EE801A84ED081A08B0BDEC72
:10239000048B70BDAE0D0020A80D0020CDCC1C41DB
:1023A00000AD00200AD7233CC3F51C41416C00EE70
:1023B000101AB5EEC00AF1EE10FA03DD416C00EE22
:1023C000101A04E0416C00EE101AB1EE400A816E62
:1023D00000EE901AB4EEE00AF1EE10FA00D8704761
:1023E000416C00EE101AB5EEC00AF1EE10FA03DDF2
:1023F000416C00EE101A04E0416C00EE101AB1EED0
:10240000400A416E00EE901AB4EEE00AF1EE10FAC6
:1024100005DD9FED180A10EE101A016227E0416EEB
:1024200000EE901A416C00EE101AB5EEC00AF1EE03
:1024300010FA03DD416C00EE101A04E0416C00EE6E
:10244000101AB1EE400A30EEC01A416E00EE101ABA
:10245000816E00EE901A30EE600AC1EE000A016A49
:1024600000EE101A20EE800A10EE101A016200BF72
:10247000B5E700000000000070B504460D46611984
:102480000F2204F58070FEF7BAFD0F2104F580706D
:102490000EF06AF901280ED1D4F8072104F2C11018
:1024A000C4F8C121B4F80B11A4F8C511002140F201
:1024B000C710015503E0012140F2C710015570BD5E
:1024C00070B504460D4661190A68C4F800214A68CF
:1024D000C4F804218968C4F808110C2104F580703F
:1024E0000EF042F901280DD140F20911B4F807218C
:1024F0004FF4BA70A4F87221095D01550021401C07
:10250000015503E0012140F27510015570BD000036
:1025100010B5064B00221146104600F03DFD044B5D
:1025200000221146012000F037FD10BD652600088D
:102530007D26000870B505460C4616462068A0F2B8
:1025400001200B2823D2DFE800F006070809232426
:102550002526696A6B0000BF00BF00BF3E498D425F
:1025600001D0012100E0002101EB810202EBC10159
:102570003A4A02EB01222168A1F2012101EB810319
:1025800003EBC10102EB4110314600F085F861E038
:1025900000BF00BF00BF3048854201D0012000E0ED
:1025A00000202F4901EB80012068A0F20520085C83
:1025B000012819D128498D4201D0012100E00021D4
:1025C00001EB810202EBC101244A02EB01222168E6
:1025D000A1F2052101EB810303EBC10102EB4110E4
:1025E000314600F059F818E01B498D4201D0012115
:1025F00000E0002101EB810202EBC101174A02EB6E
:1026000001222168A1F2012101EB810303EBC10149
:1026100002EB4110314600F03FF81BE000BF00BF65
:102620000D498D4201D0012100E0002101EB810222
:1026300002EBC101094A02EB01222168A1F2052146
:1026400001EB810303EBC10102EB4110314600F0C5
:1026500023F800BF00BF70BD64110020D8840020A3
:10266000940C002070B504460D462A4621460248C7
:10267000FFF760FF70BD00006411002070B50446D4
:102680000D462A4621460248FFF754FF70BD000060
:102690008C1100200161704770B504460D466878C2
:1026A000297840EA012000B2A082E878A97840EABF
:1026B000012001B2E182607B022806D16879297984
:1026C00040EA012001B2618305E06879297940EA96
:1026D000012001B22183A9792177206908B12069FD
:1026E0008047B4F91610B4F9140004F11E02FFF784
:1026F000C9F970BD2DE9F04705460C4690461F46C6
:10270000DDF820906048007830B9FFF701FF5E489F
:102710000078401C5C490870012D04D0022D02D0C5
:102720000020BDE8F087082C01DC012C01DA002034
:10273000F7E7012F19D1042C17DC012D01D001205E
:1027400000E00020514901EB8001601E085C032875
:1027500001D00020E5E7012D01D0012000E000209C
:102760004A4901EB8001601E0F54012F19D0052C3E
:1027700017DB012D01D0012000E00020434901EBCF
:102780008001601F085C032801D00020C9E7012DEB
:1027900001D0012000E000203C4901EB8001601FD6
:1027A0000F54012D01D0012000E0002000EB80013A
:1027B00001EBC000364901EB0021601E00EB8002F6
:1027C00002EBC00001EB40164FF4D0713046FEF72B
:1027D000AFFC2FB3012F04D0022F20D0032F3DD107
:1027E0003DE0042C0DDC06F5CF70012D01D1002158
:1027F00000E00321274A02EB0112611E42F821008A
:102800000CE006F5CF70012D01D1022100E0052179
:10281000204A02EB0112611F42F8210020E000BFB4
:10282000042C0DDC06F5CE70012D01D1012100E054
:102830000421184A02EB0112611E42F821000CE04B
:1028400006F5CE70012D01D1002100E00321114ACF
:1028500002EB0112611F42F8210001E000BF00BF3E
:1028600000BF012D01D10C4800E00C48B06034716C
:1028700086F80C807773717B4A4606F11E0000F0E3
:10288000CEFE30464DE700007C0C0020940C00206A
:10289000D8840020D89E0020641100208C110020D4
:1028A000017B012903D1F1EE400AB0EE600A90F8F5
:1028B0009011012902D180ED660A01E080ED650AE0
:1028C000704700007CB504460020009001908DF810
:1028D00000008DF801008DF802008DF803008DF8DE
:1028E00004008DF805008DF806008DF80700607B68
:1028F000012802D1B4F99E5101E0B4F99C5120792C
:1029000004281ADC607B012804D140F2FF101E4924
:10291000086003E04FF400701B490860C5F307210D
:102920002079401E0DF81010E9B22079401E0122D6
:1029300002EB40000DF8001019E0607B012804D183
:1029400040F2FF201049086003E040F2FF100E49FA
:102950000860C5F307212079401F0DF81010E9B277
:102960002079401F012202EB40000DF800100020EA
:1029700005498860C86008200861044B6A46A06861
:1029800001F061FE7CBD0000C0840020900C00209E
:1029900010B5024802F0D8FB10BD000074140020EE
:1029A00010B5024802F0D0FB10BD00000C12002050
:1029B00010B5024802F0C8FB10BD0000D41400207E
:1029C00010B5024802F0C0FB10BD00006C120020E0
:1029D00010B5024802F0B8FB10BD0000341500200D
:1029E0000146087810381823B0FBF3F20848805CE1
:1029F000C865032A05D908686FF30900001D8865BA
:102A000003E008686FF309008865886D704700006F
:102A1000887E0108014600208A6A8B69CBB932B1F1
:102A2000012A0DD0022A03D0032A10D10EE000BFE4
:102A3000CB6A03F08073B3F1807F00D1012007E0FF
:102A4000CB6AB3F1C07F00D1012001E000E000BFFC
:102A500034E08B69B3F5005F1AD132B1012A07D097
:102A6000022A03D0032A11D10AE000BF01200EE0A0
:102A7000CB6A03F08073B3F1807F00D1012006E0C0
:102A8000CB6AB3F1C07F00D1012000E000BF15E0A8
:102A900032B1012A05D0022A04D0032A0CD103E066
:102AA00000BF00BF012008E0CB6A03F08073B3F1E0
:102AB000807F00D1012000E000BF00BF7047000010
:102AC00008B508484068009007490098096888429E
:102AD00004D206480068401C044908600249009876
:102AE000086008BD001000E0F80D0020F40D002083
:102AF0000C494868F0EE400A00BF0A494968091AC3
:102B000001EE101AF8EE411A074991ED001AB8EEDD
:102B1000411A20EE811AF4EEC11AF1EE10FAECD34C
:102B200070470000001000E0E80D002010B52DED0A
:102B3000028B82B004460E484068019020680199DB
:102B4000081A00EE100AF8EE400A0A4890ED000A52
:102B5000B8EE400A80EE801AB0EE418A01982060FB
:102B6000FFF7AEFFB0EE480A02B0BDEC028B10BD1D
:102B7000001000E0E80D002010B52DED028B00F0F4
:102B800081F80F4880880E49096801EB4102C2EBC9
:102B9000C11100EBC10000EE100AB8EE400A08486F
:102BA000C08800EE900AF8EE600A9FED061A00EE6B
:102BB000810AB0EE408AB0EE480ABDEC028B10BD2F
:102BC000E00D00206F12833A10B52DED028B00F05E
:102BD00059F80F4890ED000AB8EE400A808800EEE0
:102BE000900AF8EE600A9FED0B1A00EE810A084881
:102BF000C08800EE900AF8EE600A9FED071A00EE1A
:102C0000810AB0EE408AB0EE480ABDEC028B10BDDE
:102C1000E00D00206F12833ABD37863512490968EE
:102C200041F08071104A11600021104A5160114634
:102C3000096841F0010111600D4941430D4A1160DD
:102C4000114609684FF47A72B1FBF2F10A4A116039
:102C500008490968064AB1FBF2F1084A11600021EF
:102C6000074A116070470000FCED00E0001000E032
:102C700040420F00E80D0020EC0D0020F00D002078
:102C8000F40D002038B5294840680090FFF718FF80
:102C9000274800684FF0FF31A0FB01310098181859
:102CA00041F10001234A03C223480023214902685D
:102CB00003C9FEF709F9214A03C220480CC81E487F
:102CC00000680024A2FB001503FB005002FB040275
:102CD0001848D0E90030591A60EB0200184AC2E9DE
:102CE0000010164800681749086017480023144967
:102CF000026803C9FEF7E8F8124988800846808810
:102D00001149096841430E48D0E90030591A60F171
:102D100000000E4AC2E900100D4800230B4902686A
:102D200003C9FEF7D1F80749C88038BD001000E09C
:102D3000F40D0020000E0020E80D0020080E0020F9
:102D4000100E0020E00D0020EC0D0020180E0020D9
:102D5000F00D002070B506460C462C4800680AF0BD
:102D6000F9F82078617801F0070140EA0120A0F528
:102D70002570274909690880A0788006400D617890
:102D800040EAE100A0F52570214909694880A07852
:102D900080111F490969C872E078217901F00701A3
:102DA00040EA0120A0F525701949096988816079F8
:102DB0008006400D217940EAE100A0F52570144914
:102DC0000969C8816079C0F3801111480069C17434
:102DD00060790512A079E17940EA01200C4909697E
:102DE000888245B101210A480069817400200849A0
:102DF0000969088108E000210548006981744FF4E1
:102E0000257003490969088170BD0000BC0C0020D1
:102E1000389F00200C480069808AC0F3003060B100
:102E20000A48007860B10020084908700648408EC2
:102E3000643000B20449488602E00120034908706A
:102E40000020014948867047389F00200A0D002065
:102E500070B505460C46084800680AF07BF82078F3
:102E6000012803D1054981F8360003E00020034919
:102E700081F8360070BD0000C80C0020389F00208B
:102E80000020024981F8360070470000389F00207A
:102E90007047000008B50A788DF800204A788DF850
:102EA00001208A788DF80220CA788DF80320034B20
:102EB000009A5B69C3F8B02108BD0000389F00206C
:102EC0007047000000B58BB00120099000200790EA
:102ED00001200890002001900290039004900A9035
:102EE0000690059001A92A4801F058FC284802F0F4
:102EF0008AF80221264801F091FB0121244801F0C3
:102F00008DFB4FF40041224801F088FB4FF48071A3
:102F10001F4801F083FB4FF480611D4801F07EFBE8
:102F20004FF400711A4801F079FB4FF40061184822
:102F300001F074FB0E200A90069001A9154801F0DB
:102F40002DFC144802F05FF80221124801F066FBE4
:102F50000121104801F062FB4FF400410D4801F0DF
:102F60005DFB4FF480710B4801F058FB4FF480611A
:102F7000084801F053FB4FF40071064801F04EFB86
:102F80004FF40061034801F049FB0BB000BD0000A5
:102F9000641100208C11002070B504460D460021FC
:102FA000012C00D10221012D01D1481CC1B21048D1
:102FB000405C142801D1002070BD01EB81000D4E52
:102FC00006EB40100A4E765C40F8362001EB81009B
:102FD000084E06EB4010064E765C00EBC6004360E0
:102FE0000348405C401C024E70540120E4E700009E
:102FF000100D0020889F002008B500F00BF813F09A
:10300000A9F8009005E000F06BF80121684612F085
:103010002BFDF8E710B5B7EE000A264880ED010A4F
:10302000B7EE000A80ED020AB7EE000A80ED030A4F
:103030009FED210A80ED040A9FED1F0A80ED050A2D
:103040009FED1D0A80ED060A01201A4908709FEDC8
:103050001A2AF7EE001A9FED191ADFED190AB2EEDF
:10306000040A05F049FB06219FED131AF3EE040A4A
:103070009FED140A144808F0BCFEDFED0F0A9FED27
:10308000130A0421104808F0D3FEDFED0B0A9FED70
:10309000100A02210C4808F0CBFE00210D4804F074
:1030A0000DFD9FED0D0A0D4880ED170AA820FFF7D2
:1030B000B5FD10BD0C700020000000008096184B7C
:1030C0006F12833A00007A44287000200000FA440E
:1030D00000009643A413002096430B3CD46E0020BE
:1030E00010B52DED048B86B0BA4AD2E90010926873
:1030F000CDE904020391B848FFF718FDB74880ED09
:10310000000AB74890ED000AB448D0ED000A30EE4E
:10311000200AB34880ED000A00BF0120B1490860D1
:10312000B148FEF7D7F9B04890ED000AAD4880ED00
:10313000080AAD4890ED010AAA4880ED090AAA489C
:1031400090ED020AA74880ED0A0AA74890ED030A0D
:10315000A44880ED050AA44890ED040AA14880ED3A
:10316000060AA14890ED050A9E4880ED070A00F185
:10317000200200F114019D4805F004F9994890EDF2
:103180000A1AF0EE410A90ED081AB0EE410A0EF06C
:103190006BF9B1EE400ADFED960A20EE200ADFED72
:1031A000950A80EE201A8F4880ED211A90ED0A1AB8
:1031B000F0EE410A90ED091AB0EE410A0EF054F912
:1031C000DFED8B0A20EE200ADFED8A0A80EE201A5E
:1031D000844880ED221A90ED0A3AF0EE432A90EDF1
:1031E000093AB0EE432A90ED083AF0EE431A90ED1A
:1031F000073AB0EE431A90ED063AF0EE430A90ED2E
:10320000053AB0EE430A754890ED003A05F0B2FB7E
:10321000744A7948D0E91514036DC06DC2E90214EF
:1032200053601061121D02F15C017448FEF76AFBE5
:103230006C4A121D02F168017148FEF763FB694A8E
:10324000121D02F174016F48FEF75CFB654A121D06
:10325000694603A800F036F9002039E061492031C1
:1032600001EB800191ED000A694601EB8001D1ED8F
:10327000000A30EE600A5949D1ED000A60EE200ADA
:10328000584991ED170A554991ED001A30EE011A8F
:1032900080EE810A5349383101EB8001D1ED000AFB
:1032A000504991ED171A60EE810A91ED171A4B49BA
:1032B000D1ED001A31EE211AC0EE811A30EE210A4A
:1032C0004849383101EB800181ED000A411CC8B248
:1032D0000328C3DB434A121D02F14001A1F10C0097
:1032E000FEF710FB484890ED6A0A3E4880ED250A3B
:1032F000454890ED690AB1EE400A3A4880ED240A4B
:10330000414890ED680A374880ED230A3E4890ED29
:103310006B0A344880ED260A90ED010A3B4880EDA7
:10332000000A304890ED020A384880ED010A2D4825
:1033300090ED030A354880ED020A2A4890ED040A10
:10334000324880ED030A274A121D02F12801A1F13B
:103350000C00FEF7D7FA234890ED0B8AD0ED0C8ACB
:10336000D0ED250AB0EE600A12F0E8F820EE289AB7
:103370001C48D0ED250AB0EE600A10F0DBFD08EE27
:10338000009A184880ED0B9AD0ED250AB0EE600A3D
:1033900010F0D0FD20EE289A1248D0ED250AB0EEAC
:1033A000600A12F0CBF808EE409A0E4880ED0C9AB5
:1033B00000BF1748007800F0010008B906F0A4F932
:1033C00013480068401C1249086006B0BDEC048B2D
:1033D00010BD0000CC7E01088C010020900100206F
:1033E00094010020D46E00200CAD00200C70002051
:1033F00000003443DB0F494040AE0020A87E0108A6
:10340000B47E0108C07E010840AD0020C0700020DD
:10341000A001002000B52423034AA2F1240103489F
:1034200008F0AAFF00BD000044A2002030140020D4
:1034300010B5012005490870054808F0E1FF05486E
:10344000006810B103480068804710BD1C0D0020C3
:1034500030140020200D002000B5FF23034AA2F500
:103460008071034812F026F800BD000068A3002018
:103470003014002070B504460D4661190D2204F584
:103480008070FDF7BCFD0D2104F580700DF06CF926
:10349000012808D1D4F80711C4F8631100214FF4B2
:1034A000B470015503E001214FF4B470015570BDB3
:1034B00010B5102001F0F4FF10BD10B5202001F070
:1034C000EFFF10BDD2ED020A92ED021AB6EE000A2D
:1034D00000EEC10AD2ED030A92ED031A00EEC10A12
:1034E000D0ED000A20EE200AD2ED010A92ED021A78
:1034F00060EE810A92ED001AD2ED031A41EE210A24
:1035000090ED011A00EE810AD2ED010A92ED031A44
:1035100060EE810A92ED001AD2ED021A41EE610AC4
:1035200090ED021A00EE810AF0EE000A20EE200A69
:1035300081ED000A92ED010AD2ED020A20EE200A86
:10354000D2ED000A92ED031A00EEC10AD0ED000A96
:1035500060EE200A92ED011AD2ED011AB6EE000AD1
:1035600001EE610AD2ED031A92ED032AB0EE401A81
:1035700001EEC21AD0ED011AB0EE600A01EE210A86
:10358000D2ED020A92ED031A60EE810A92ED001A62
:10359000D2ED011A41EE210A90ED021A00EE810AE5
:1035A000F0EE000A20EE200A81ED010A92ED010AF8
:1035B000D2ED030A20EE200AD2ED000A92ED021AA3
:1035C00000EE810AD0ED000A20EE200AD2ED020AB8
:1035D00092ED031A60EE810A92ED001AD2ED011A03
:1035E00041EE610A90ED011A00EE810A92ED011A96
:1035F000D2ED011AF6EE000A41EE610A92ED021ACE
:10360000D2ED021A41EE610A90ED021A00EE810A33
:10361000F0EE000A20EE200A81ED020A704770B534
:1036200004460D461646204600F033F800EE106AB8
:10363000B8EE400A10EE100AA06084F83150002065
:1036400084F8330084F832006DB1012D17D0022DBB
:103650001CD12803A4F82F002420A0860A20E0868D
:10366000E801208713E04FF40050A4F82F00132046
:10367000A0860A20E0864FF48070208707E04FF490
:103680000050A4F82F000120A08600E000BF00BF7A
:1036900070BD10B5044642212046FDF727FD10BD40
:1036A00072B600BFFEE7000010F098FF4EE0284819
:1036B0000088401C2649088008460088B0F57A7FBB
:1036C00001DD0020088012F0F3F822488068C08AEB
:1036D000404200B2204908801E48C068C08A1F4985
:1036E00008801C484068C08A1D4908801948006845
:1036F000C08A404200B21B490880FFF78BFB09F0EB
:103700006FFD164C2488A3B2134C2488A2B2154C2A
:103710002488A1B2124C2488A0B209F01FFD00F049
:1037200025FD10F0B3FE10F0EDFE09F0FBFD084999
:10373000088800EBD0714910A0EB410109B909F0EC
:10374000C5FC12F0DFF8012012F060F9AFE70000CD
:10375000F8010020D0700020E0010020E2010020EC
:10376000E4010020E601002070B5054665B919485E
:1037700090ED000AB5EEC00AF1EE10FA04D1FFF7A1
:10378000FBF9144880ED000A012D16D1114890ED87
:10379000000AB5EEC00AF1EE10FA0ED0FFF7ECF910
:1037A0000C48D0ED000A30EE600ABDEEC00A10EE03
:1037B000104A9FED090A80ED000A002C09DDB4F5DE
:1037C0007A7F06DA00EE104AB8EEC00A034880EDB0
:1037D000000A70BDB40A002000000000B00A0020FA
:1037E00070B504460D46611904F580700A68C4F886
:1037F00000214A68C4F804210989A4F808110A21A3
:103800000CF0B2FF012816D140F21111D4F80721B3
:103810004FF4A570C4F84021D4F80B21C4F844211A
:10382000B4F80F21A4F84821095D0155002140F2A8
:103830004110015503E0012140F24110015570BDD6
:1038400070B504460D466119142204F58070FDF729
:10385000D6FB142104F580700CF086FF012815D1E9
:1038600040F21111D4F80721C4F83421D4F80B2107
:10387000C4F83821B4F80F21A4F83C21095D84F87C
:103880003E11002140F23F10015503E0012140F2BA
:103890003F10015570BD000002E0012012F0B6F8A3
:1038A00000F0D4F90028F8D002E0012012F0AEF8C0
:1038B0007948406800680028F7D000F087FCEAE00B
:1038C00076480088401C7549088008460088B0F595
:1038D0007A7F01DD002008806F4800690068642855
:1038E00012D26F486F490968486300206D49096822
:1038F00088636C490968C8636749086906F086FEF1
:10390000012012F083F8C6E067480088B0F5FA7F1E
:103910003EDA0020634909684863614861490968E3
:10392000886300205F490968C8635B499FED5F2A8F
:10393000DFED5E1A9FED5D1ADFED5C0A08695C49F8
:1039400091ED000A06F0D6FD5348006990ED050A96
:10395000B5EEC00AF1EE10FA04DD4F48006990EDB3
:10396000050A05E04C48006990ED050AB1EE400AF1
:10397000DFED500AB4EEE00AF1EE10FA04D24A4844
:103980000088401C48490880012012F03FF882E07E
:1039900045480088B0F5FA7F07D13F480069D0ED6F
:1039A000040AB0EE600A09F0B7FC11F081FF00F0E4
:1039B000BDFB4149414804F07BFC3748006890ED6D
:1039C000000A35480069D0ED040A30EE600AF0EED6
:1039D000401A3148406890ED240AB0EE401A36484B
:1039E000D0ED000A354890ED000A00F0B9F92A48F8
:1039F000006890F8340028BB64203149087000F05A
:103A000061FD25480069D0ED040AB0EE600A00F0BF
:103A100075FD21488068D0F81E00C117024600F0ED
:103A2000E9FD1D484068D0ED240AB0EE600A00F0C0
:103A30006FFD19484068D0ED250AB0EE600A00F02D
:103A4000E3FD01E000F06EFD08F04CFE07F00CFE17
:103A50001249088800EBD0714910A0EB410109B967
:103A600009F0F0FB0C498868FEF72CFF0A499FED2E
:103A70000F2ADFED0E1A9FED0D1ADFED0C0A086913
:103A8000104991ED000A06F035FD11F03BFF0120D1
:103A900011F0BCFF00BF13E7FC700020500A0020AB
:103AA00040420F0014130020D40900200000000041
:103AB000240A00208FC2F53C1C0A0020180A0020AE
:103AC000280A0020200A002070B504460D4661191E
:103AD000312204F58070FDF792FA312104F58070EF
:103AE0000CF042FE01280AD1282204F2071104F545
:103AF000E470FDF784FA002184F8F01102E001215E
:103B000084F8F01170BD0000DFED070A80EE201A86
:103B1000DFED061ADFED060A41EE210AFCEEE00AAF
:103B200010EE901A88B27047000034430000FA4447
:103B30000000FA4330B5034613B94FF6FF7030BDAD
:103B400009E013F8014B82EA0400C0B2054D35F8D4
:103B5000100080EA2222081EA1F10101F1D11046D5
:103B6000EDE70000DA7F010830B5034605E013F801
:103B7000010B80EA02040448025D081EA1F1010164
:103B8000F5D1104630BD0000D97E010810B502E025
:103B9000012011F03BFF00F059F80028F8D005484B
:103BA00001780078401C034A107009B9FEF7D2F87A
:103BB000014810BD0D0D0020389F002010B52DEDDF
:103BC000028B0446FEF7D8FFD4ED390A30EE600AC6
:103BD000B0EE408A0C4890ED000A84ED150A0B48BF
:103BE00090ED000A84ED160A094890ED000A84ED74
:103BF000170A084890ED000A84ED180AB0EE480A4A
:103C0000BDEC028B10BD0000700D0020740D002073
:103C1000780D00207C0D002070B50A480468001D56
:103C20000568001D0668344454B108220649204640
:103C300005F0C5FD042204491031284605F0BFFDFA
:103C400070BD0000107AFF1F560000200148007868
:103C5000704700008C0A00200048704768A50020CB
:103C600010B52DED028BB0EE408AF0EE608A374839
:103C7000007E30B9354890ED070A30EE080A80ED35
:103C8000070A3248007E012808D1304890ED080A22
:103C9000F0EE000A08EE600A80ED080A2B48407E2C
:103CA00030B92A4890ED090A30EE280A80ED090A59
:103CB0002648407E012838D1254890ED000AF3EED1
:103CC000040A08EEA00A80ED000A90ED000AB5EEA5
:103CD000C00AF1EE10FA02DD90ED000A04E01C4883
:103CE00090ED000AB1EE400AF7EE000AB4EEE00AE9
:103CF000F1EE10FA19DB1548D0E90A21104613F04D
:103D000001FE00EE100A1248D0ED000A30EE200A43
:103D100010EE104A204613F063FF0C4AC2E90A0174
:103D20009FED0C0A0A4880ED000A0848D0ED090A08
:103D3000B0EE600A9FED081ADFED080A10F040FEB1
:103D4000024880ED090ABDEC028B10BD389F0020AF
:103D5000040D00200000000000003443000034C3C4
:103D600030B52DED048B81B0B0EE408AF0EE608A64
:103D7000B0EE419AF0EE619A00F0EEFB0024E048CC
:103D800000690088302803D10020DD4909690880D6
:103D9000DB480079012804D0022847D003287CD1D1
:103DA00089E00120D7490870D5480069B0F90C00B6
:103DB000404201EE100AB8EEC11ADFEDD31A21EE2F
:103DC000211AF0EE410ACE480069B0F90E004042D7
:103DD00001EE100AB8EEC11ADFEDCC1A21EE211A5D
:103DE000B0EE410AFFF73CFFC5480069B0F900009A
:103DF000404201EE100AB8EEC11AC548D0ED001AD3
:103E000021EE211AF0EE410ABD480069B0F9020026
:103E100001EE100AB8EEC11ABE48D0ED001A21EE2C
:103E2000211AB0EE410AFFF71BFFD9E00220B54985
:103E30000870B3480069B0F90C00404201EE100A66
:103E4000B8EEC11ADFEDB41A21EE211AF0EE410AE4
:103E5000AB480069B0F90E00404201EE100AB8EE1E
:103E6000C11ADFEDAD1A21EE211AB0EE410AFFF7BB
:103E7000F7FEA3480069B0F90000404201EE100AC5
:103E8000B8EEC11ADFEDA51A21EE211AF0EE410AB3
:103E90009B480069B0F9020000E061E001EE100A01
:103EA000B8EEC11ADFED9D1A21EE211AB0EE410ADB
:103EB000FFF7D6FE94E092480069B0F90C0040424A
:103EC00001EE100AB8EEC11ADFED8F1A21EE211AA9
:103ED000F0EE410A8A480069B0F90E00404201EE56
:103EE000100AB8EEC11ADFED891A21EE211AB0EEE0
:103EF000410AFFF7B5FE82480069B0F90000404270
:103F000001EE100AB8EEC11ADFED851A21EE211A72
:103F1000F0EE410A7A480069B0F9020001EE100A99
:103F2000B8EEC11ADFED7E1A21EE211AB0EE410A79
:103F3000FFF796FE7B48006890F84F0060B170482C
:103F4000806890ED000A6E4880ED070AC06890ED29
:103F5000000A6B4880ED090A03206A4908703FE0B7
:103F600067480069B0F90C00404201EE100AB8EE53
:103F7000C11ADFED651A21EE211AF0EE410A604800
:103F80000069B0F90E00404201EE100AB8EEC11A05
:103F9000DFED5E1A21EE211AB0EE410AFFF760FE56
:103FA00057480069B0F90000404201EE100AB8EE2F
:103FB000C11ADFED5B1A21EE211AF0EE410A5048DA
:103FC0000069B0F9020001EE100AB8EEC11ADFED87
:103FD000541A21EE211AB0EE410AFFF741FE00BF4C
:103FE00000BF4748007E00BB454890ED070AB4EE8D
:103FF000E80AF1EE10FA02D2B0EE680A02E0404898
:1040000090ED070A3E4880ED070A90ED070AB4EEEE
:10401000C80AF1EE10FA02DDB0EE480A02E03848B4
:1040200090ED070A364880ED070A3548007E0128E2
:104030002CD1334890ED080AD0ED000A9FED3A1AD2
:1040400070EEC10AB4EEE00AF1EE10FA06D290ED7D
:10405000000ADFED350A30EE600A02E0284890EDF4
:10406000080A274880ED080A90ED080AD0ED000AFA
:10407000B4EEE00AF1EE10FA02DD90ED000A02E083
:104080001F4890ED080A1E4880ED080A1C48007E73
:10409000012800D100E00020194D00902D79012D5C
:1040A00005D0174D2D79022D01D0012500E0002506
:1040B0002B46134D2D7E012D02D1F0EE690A01E051
:1040C000F0EE490AB0EE600A0D4D95F835202D79D5
:1040D000042D01D1254603E0124D2D6895F8CD50F1
:1040E0002946104D2D6895F84F500DB1012500E07F
:1040F0000025284608F072FF01B0BDEC048B30BDEE
:10410000389F00200B0D0020A69BC43B0AD7A33B81
:10411000D80C0020D40C002017B75139ACC5273774
:1041200052499D39900A00200000604210B50D48A8
:1041300090F83000A8B90C480078012811D109483E
:104140000169406900F215200268CA6042680A618C
:104150000089888204480078401E0349087009F0ED
:104160009FF810BD389F00202A0D002015480069D7
:10417000808AC0F3402048B912480069C07A0128FB
:1041800004D010480069C07A032803D101200D49EA
:1041900081F834000B480069C07A022809D10A4826
:1041A0000078012805D1002007490870054981F8E9
:1041B000340004480069C07A022802D00120024974
:1041C00008707047389F00200C0D002008B59FED47
:1041D000A00AA04880ED370AFFF7D8FC9E49086086
:1041E00010F0C2FB9C4948604FF40F70022300227C
:1041F000082100900120FEF77DFA9749C8604FF42E
:104200000F7001230022194600900220FEF772FA77
:1042100091498860914806F01DFA8F49086106218E
:104220009FED8F1ADFED8E0A9FED8D0A8D4807F006
:10423000E0FDDFED8B0A9FED8A0A0221894807F035
:10424000F7FDDFED870AB1EE000A0421854807F08B
:10425000EFFD4FF483719FED821ADFED810A9FED30
:10426000800A8048983007F0C4FDDFED7D0A9FED9D
:104270007C0A02217B48983007F0DAFDDFED780AEE
:104280009FED770A04217748983007F0D1FDDFEDE4
:10429000740AB3EE0E0A4FF480717248983007F03A
:1042A000C7FD0621B2EE0E1ADFED6D0A9FED6E0A14
:1042B0006E4807F09EFDDFED6A0A9FED6D0A022150
:1042C0006A4807F0B5FDDFED660A9FED6A0A042132
:1042D000664807F0ADFD06219FED611ADFED600A2B
:1042E000B0EE000A6148983007F083FDDFED5C0A0C
:1042F0009FED5D0A04215D48983007F099FDDFEDE0
:10430000580A9FED590A02215848983007F090FD4D
:1043100016219FED531AF7EE080A9FED510A5148F6
:10432000983807F066FDDFED4E0A9FED530A022133
:104330004C48983807F07CFDDFED490A9FED4E0AA6
:1043400004214848983807F073FDFBEE040AB3EEE9
:10435000040A10214348983807F06AFD06219FEDB2
:10436000401ADFED3F0AB2EE040A3A48543807F02B
:1043700040FDDFED3B0A9FED3E0A022135485438EF
:1043800007F056FDDFED360A9FED3C0A0421314867
:10439000543807F04DFD06219FED311ADFED300A4C
:1043A0009FED370A2B48443007F023FDDFED2C0A40
:1043B0009FED2F0A04212748443007F039FDDFED37
:1043C000280A9FED290A02212248443007F030FDD7
:1043D0002C4B012202212048143005F0E6FF2A4B25
:1043E000012202211C48343005F0DFFF274B012257
:1043F00002211948543005F0D8FF254B0122022133
:104400001548743005F0D1FF224B012202211248D9
:10441000943005F0CAFF204B204A1E2120A008F04E
:10442000A9FD244908600C490869234906F040F8B1
:10443000094988682149FEF72DF90749C8682049CC
:10444000FEF728F90449086906F0E0F808BD000005
:104450000000AA42FC740020FC70002064110020BF
:1044600000000000487200200000484378730020DC
:1044700000007A440050C34600401C4600409C4562
:10448000CDCCCC3DE0090020E8090020F009002057
:10449000080A0020100A0020914E0108794E0108F8
:1044A00050697463685F4D6F746F725F53616665C6
:1044B00000000000D80900205D4E0108AD6301082E
:1044C00005BC000810B5002006498968A1F89E01C6
:1044D0009FED050A054880ED000A0249086906F0CB
:1044E00049FA10BDFC70002000000000200A0020E6
:1044F0000149087670470000389F002001200349D9
:104500000876084680ED080A70470000389F0020B2
:10451000002003490876084680ED070A704700002E
:10452000389F002010B50A480078002808DD0949A6
:10453000086906F06BF806480078401E04490870C8
:1045400006F054FE07F0C2FC0CF0D4FA10BD0000D7
:10455000280A0020FC7000201F480069C07A01284A
:104560000CD0022802D003280CD103E001201B4903
:1045700008700BE001201949087007E00220174974
:10458000087003E001201549087000BF00BF1448FF
:10459000007812490978884203D0104800780E4903
:1045A00008710E4800780E4908700B480069C07CFD
:1045B00001280CD10B48006890F84F0018B1032077
:1045C0000549087107E002200349087103E0034828
:1045D0000078014908717047389F0020090D0020BC
:1045E000080D0020900A002001494876704700001D
:1045F000389F00200122034B5A761A46C2E90A016D
:1046000070470000389F0020002003494876084684
:1046100080ED090A70470000389F002010B502465F
:1046200092F82030012B01D0022B06D1106840698E
:10463000084314686061002010BD506A40F4802077
:1046400050620120F8E7F0B504460D461E4694F886
:10465000207020688368A86800B900E000BF012FBF
:1046600001D0022F7CD103F0806030B903F00060EC
:1046700018B903F08050002873D0C3F301610229F8
:1046800005D9606A40F4000060620120F0BD01209D
:1046900088403060A86860B9B5F800C0E86840EAB2
:1046A0004C5C206800F5C07000EB0110C0F800C041
:1046B0000FE0D5E901C040EACC00D5F80CC040EAD3
:1046C0000C00D4F800C00CF5C07C0CEB011CCCF83D
:1046D0000000D5F810C0206800F5C07000EB011094
:1046E000C0F804C0287D01280ED1206800F5C070F4
:1046F00000EB0110406840F4807C206800F5C07039
:1047000000EB0110C0F804C0D079000692F806C092
:1047100040EA0C4092F805C040EA0C2C10794CEAB3
:10472000000C206800F5C07000EB0110C0F80CC050
:10473000D078000692F802C040EA0C4092F801C01E
:1047400040EA0C2092F800C040EA0C00D4F800C007
:104750000CF5C07C0CEB011CCCF80800206801E0D3
:1047600016E00FE000F5C07000EB0110006840F0AB
:10477000010C206800F5C07000EB0110C0F800C00B
:10478000002083E7606A40F40010606201207DE74A
:10479000606A40F480206062012077E7F0B504464B
:1047A0000A46216894F82050012D01D0022D7ED1B7
:1047B000424901F50071086840F00100086008688E
:1047C00020F47C5008600868566A40EA06200860B9
:1047D000107D00F01F06012000FA06F3C869984317
:1047E000C861A1F50071D069C8B9D1F80C0298432D
:1047F000C1F80C02908880B2968940EA064601F51D
:104800001070576940F83760108880B2168940EA06
:10481000064601F51070576900EBC7004660D06985
:10482000012819D1D1F80C021843C1F80C02908864
:1048300080B2168840EA064601F51070576940F8C4
:104840003760908980B2168940EA064601F51070FB
:10485000576900EBC7004660906928B9D1F8040297
:104860009843C1F8040204E0D1F804021843C1F8E7
:104870000402106928B9D1F814029843C1F814024F
:1048800004E0D1F814021843C1F81402106A012898
:1048900004D1D1F81C021843C1F81C02D1F800025F
:1048A00020F00100C1F800020020F0BDFFE7606ABF
:1048B00040F4802060620120F7E7000000640040BF
:1048C000704770B5044694F82050012D01D0022D98
:1048D0007DD151B92068C06800F0030080B9606ADA
:1048E00040F400106062012070BD2068006900F093
:1048F000030028B9606A40F4001060620120F3E709
:10490000206800F5D87000EB0110006800F004008A
:104910009060906840B9206800F5D87000EB0110F5
:104920000068400D106007E0206800F5D87000EBCB
:1049300001100068C0085060206800F5D87000EBD6
:104940000110006800F00200D060206800F5D87007
:1049500000EB0110406800F00F001061206800F5C6
:10496000D87000EB0110406800F47F40000A9061AD
:10497000206800F5D87000EB01104068000C506111
:10498000206800F5D87000EB01108068187020686E
:1049900000F5D87000EB0110806800F47F40000A39
:1049A0005870206800F5D87000EB0110806800F4A2
:1049B0007F00000C9870206800F5D87000EB0110A3
:1049C0008068000ED870206800F5D87000E02FE0F5
:1049D00000EB0110C0681871206800F5D87000EB7A
:1049E0000110C06800F47F40000A5871206800F58B
:1049F000D87000EB0110C06800F47F00000C9871C3
:104A0000206800F5D87000EB0110C068000ED87166
:104A100031B92068C06840F020002668F06005E0E9
:104A20002068006940F020002668306100205BE7C4
:104A3000606A40F480206062012055E72DE9F05F54
:104A400004460025206846692068D0F80490206854
:104A500087682068D0F80CA02068D0F810B02068D3
:104A6000D0F8188006F00100002855D007F00100AA
:104A7000C0B101202168886007F0020018B120460B
:104A800000F0F1FA0EE007F0040010B145F4006503
:104A900008E007F0080010B145F4805502E0204618
:104AA00000F0E0FA07F48070C8B14FF4807021681C
:104AB000886007F4007018B1204600F0D6FA0EE0C6
:104AC00007F4806010B145F4005508E007F4006079
:104AD00010B145F4804502E0204600F0C5FA07F425
:104AE0008030C8B14FF480302168886007F400300E
:104AF00018B1204600F0BBFA0EE007F4802010B198
:104B000045F4004508E007F4002010B145F4803575
:104B100002E0204600F0AAFA06F0080038B10AF0D8
:104B2000100020B145F4007510202168C86006F01F
:104B3000040040B10AF0080028B108202168C860CC
:104B4000204600F00DFA06F0020038B12068C06877
:104B500000F0030010B1204600F004FA06F0400017
:104B600038B10BF0100020B145F4806510202168A9
:104B7000086106F0200040B10BF0080028B10820C1
:104B800021680861204600F03BFA06F0100038B1B9
:104B90002068006900F0030010B1204600F031FAEF
:104BA00006F4003040B109F0100028B1102021684F
:104BB0004860204600F026FA06F4803040B109F043
:104BC000080028B1082021684860204600F050FA0B
:104BD00006F4004088B309F0040078B306F480704E
:104BE00020B108F0010008B145F0010506F400709D
:104BF00020B108F0020008B145F0020506F480601B
:104C000020B108F0040008B145F0040506F4006086
:104C1000A0B108F0700088B108F07000402817D0EB
:104C200006DC10280BD020280CD0302819D10CE03D
:104C3000502810D0602814D110E01DE019E045F094
:104C400008050FE045F010050CE045F0200509E0EF
:104C500045F0400506E045F0800503E045F4807529
:104C600000E000BF00BF2068806920F0700021686C
:104C700088610420216848602DB1606A2843606221
:104C80002046FFF71DFEBDE8F09F70B504460CB945
:104C9000012070BD94F8200010B9204600F0B0F853
:104CA0002068006840F001002168086000F006FDFF
:104CB00005460DE000F002FD401B0A2808D9606A95
:104CC00040F400306062052084F820000120E0E715
:104CD0002068406800F001000028EBD020680068E0
:104CE00020F002002168086000F0E8FC05460DE0B5
:104CF00000F0E4FC401B0A2808D9606A40F4003048
:104D00006062052084F820000120C2E72068406826
:104D100000F002000028EBD1207E012806D1206897
:104D2000006840F080002168086005E020680068A5
:104D300020F0800021680860607E012806D120688C
:104D4000006840F040002168086005E020680068C5
:104D500020F0400021680860A07E012806D120686C
:104D6000006840F020002168086005E020680068C5
:104D700020F0200021680860E07E012806D120682C
:104D8000006820F010002168086005E020680068D5
:104D900040F0100021680860207F012806D12068BB
:104DA000006840F008002168086005E0206800689D
:104DB00020F0080021680860607F012806D1206883
:104DC000006840F004002168086005E02068006881
:104DD00020F0040021680860D4E902010843216939
:104DE0000843616908436168491E08432168C86136
:104DF00000206062012084F82000002049E70000C4
:104E000010B586B00446142101A8FCF791F94E496B
:104E10002068884241D14D480068401C4B490860D9
:104E20000846006801280FD100BF002000904848C4
:104E3000006840F00070464908600846006800F0CD
:104E40000070009000BF00BF00BF002000904048ED
:104E50001038006840F008003D49103908600846E5
:104E6000006800F00800009000BF00BF0320019020
:104E70000220029000200390032004900920059056
:104E800001A9344800F01AFB00220521142000F08B
:104E9000CFFC142000F0BCFC54E02F49206888426D
:104EA00050D100BF002000902948006840F0806089
:104EB000274908600846006800F08060009000BF45
:104EC00000BF22480068401C20490860084600686E
:104ED00001280FD100BF002000901D48006840F05D
:104EE00000701B4908600846006800F000700090E0
:104EF00000BF00BF00BF00200090154810380068B8
:104F000040F002001249103908600846006800F0BD
:104F10000200009000BF00BF6020019002200290BC
:104F200000200390032004900920059001A90B485C
:104F300000F0C4FA00220521402000F079FC402056
:104F400000F066FC06B010BD006400401C000020AC
:104F500040380240000C024000680040000402405B
:104F600070470000F0B589B00646002400276B4664
:104F700002AA00213046FFF7A4FC002838D11D48C2
:104F8000864200D102240498042803D1039F601CA8
:104F9000C4B200E0029F002526E004EB840016491D
:104FA00001EB401050F8350050B904EB840001EBE0
:104FB000401000EBC5006946426802A8904712E025
:104FC00004EB84000C4901EB401050F83500B84266
:104FD00009D104EB840001EB401000EBC5006946E9
:104FE000426802A890476D1C0448005DA842D4DCCA
:104FF00009B0F0BD8C110020889F0020100D00200A
:1050000070477047704770B5044694F82000012837
:1050100022D1022084F820002068006820F00100DE
:105020002168086000F04AFB05460DE000F046FBF1
:10503000401B0A2808D9606A40F4003060620520ED
:1050400084F82000012070BD2068406800F0010055
:105050000028EBD16062F6E7606A40F400206062ED
:105060000120F0E7704770477047704770477047FE
:10507000704770B50446A56D00F020FB064694F815
:105080003500022808D08020606500BF002084F829
:10509000340000BF012070BD2068006820F01600B9
:1050A000216808602068406920F08000216848611C
:1050B000206C08B9A06C28B12068006820F00800B6
:1050C000216808602068006820F0010021680860FD
:1050D00010E000F0F3FA801B05280BD92020606552
:1050E000032084F8350000BF002084F8340000BF9E
:1050F0000320D0E72068006800F001000028E8D114
:1051000094F85C103F208840A860012084F83500A6
:1051100000BF002084F8340000BF00BFBBE7014699
:1051200091F83500022803D080204865012070479F
:10513000052081F835000868006820F001000A6841
:1051400010600020F3E70000F8B50446002000904E
:105150008C4800684FF41651B0FBF1F7A56D2E682E
:1051600094F85C1008208840304098B120680068AE
:1051700000F0040070B12068006820F0040021688D
:10518000086094F85C1008208840A860606D40F0CA
:105190000100606594F85C1001208840304068B1DF
:1051A0002068406900F0800040B194F85C10012054
:1051B0008840A860606D40F00200606594F85C1063
:1051C00004208840304068B12068006800F0020088
:1051D00040B194F85C1004208840A860606D40F0F5
:1051E0000400606594F85C1010208840304078B36B
:1051F0002068006800F0080050B394F85C1010209C
:105200008840A8602068006800F4802080B1206891
:10521000006800F4002028B9206CC8B12046216C39
:10522000884715E0A06C98B12046A16C88470FE034
:105230002068006800F4807028B92068006820F0B9
:10524000080021680860206C10B12046216C884756
:1052500094F85C10202088403040002865D02068F9
:10526000006800F0100000285FD094F85C10202047
:105270008840A86094F83500052828D12068006887
:1052800020F01600216808602068406920F0800046
:1052900021684861206C08B9A06C28B120680068BA
:1052A00020F008002168086094F85C103F208840D6
:1052B000A860012084F8350000BF002084F8340085
:1052C00000BF206D10B12046216D8847F8BD2068D1
:1052D000006800F4802080B12068006800F400209D
:1052E00028B9606C10B12046616C88471DE0E06B06
:1052F000D8B12046E16B884717E02068006800F4C9
:10530000807068B92068006820F01000216808608B
:10531000012084F8350000BF002084F8340000BF6D
:10532000E06B10B12046E16B8847606D38B3606D6B
:1053300000F00100F0B1052084F835002068006815
:1053400020F001002168086000BF0098401C009018
:10535000B84200D905E02068006800F0010000288C
:10536000F3D100BF012084F8350000BF002084F88D
:10537000340000BFE06C10B12046E16C884700BFEC
:10538000A4E70000900000202DE9F041044600252C
:1053900000F094F9074614B90120BDE8F081606A75
:1053A00000B100BF022084F8350000BF002084F85F
:1053B000340000BF2068006820F001002168086008
:1053C0000AE000F07BF9C01B052805D920206065A4
:1053D000032084F83500E0E72068006800F0010051
:1053E0000028EED12068056821480540D4E9010174
:1053F0000843E16808432169084361690843A169DA
:105400000843E1690843216A08430543606A0428A8
:1054100003D1D4E90B0108430543206805602068E7
:10542000456925F00705606A0543606A04280DD1C7
:10543000A06A0543E06A48B12046FDF7EBFA28B1BF
:1054400040206065012084F83500A6E720684561AA
:105450002046FDF7C5FA064694F85C103F208840C8
:10546000B06000206065012084F83500002094E7DA
:105470003F8010F070B5044600F020F9064625463E
:10548000681C10B104480078054400BF00F016F90C
:10549000801BA842FAD370BD8C000020704700002A
:1054A00010B5044604480068204020B1024804605A
:1054B0002046FFF7F3FF10BD143C0140F8B502464B
:1054C0000B460025002400200021D6E0012606FA24
:1054D00001F51E6806EA0504AC4274D11E7906F097
:1054E0000306012E04D01E7906F00306022E13D106
:1054F00090684F000326BE40B0434F00DE68BE40B8
:1055000030439060506801268E40B0431E79C6F348
:1055100000168E40304350601E7906F00306032EBD
:1055200009D0D0684F000326BE40B0434F009E68AC
:10553000BE403043D0601E7906F00306022E13D120
:10554000CF0802F1200656F827004E07F70E0F2667
:10555000BE40B0434F07FF0E1E69BE403043CF0828
:1055600002F1200646F8270010684F000326BE40CF
:10557000B0431E7906F003064F00BE403043106072
:105580005E6806F44036002E76D000BF00260096F6
:105590003C4E366846F480463A4F3E603E4636689A
:1055A00006F48046009600BF00BF374E8F0856F8BD
:1055B00027008E07370F0F26BE40B043334EB2424E
:1055C00002D1002624E057E0314EB24201D101263B
:1055D0001EE0304EB24201D1022619E02E4EB242F8
:1055E00001D1032614E02D4EB24201D104260FE072
:1055F0002B4EB24201D105260AE02A4EB24201D119
:10560000062605E0284EB24201D1072600E0082612
:105610008F073F0FBE4030431B4E8F0846F82700D0
:10562000224E3068A0435E6806F4801606B120431F
:105630001E4E3060361D3068A0435E6806F40016CA
:1056400006B12043194E361D3060184E361F3068A3
:10565000A0435E6806F4003606B12043134E361FA1
:105660003060361F3068A0435E6806F4803606B1AD
:1056700020430E4E083E3060491C1029FFF426AF2F
:10568000F8BD0000443802400838014000000240E4
:105690000004024000080240000C024000100240DA
:1056A0000014024000180240001C0240083C014067
:1056B0000AB1816101E00B04836170470148006811
:1056C00070470000840000200348006803490978FF
:1056D0000844014908607047840000208C000020C5
:1056E00010B50D48006840F400700B49086008468A
:1056F000006840F4806008600846006840F48070EC
:105700000860032000F0D2F8052000F007F800F050
:1057100055F8002010BD0000003C0240F0B587B0F5
:1057200004460026002700BF002000901E480068A5
:1057300040F001001C4908600846006800F00100C4
:10574000009000BF00BF01A902A801F06BF801F0B2
:10575000A1F846001548B6FBF0F0471E144815495D
:10576000086040F2E7311348C160476000210161E1
:105770008160816101F000FE054695B90D4801F098
:1057800099FE05466DB9192000F042F8102C07D299
:1057900000222146192000F04BF80748046000E081
:1057A0000125284607B0F0BD4438024040420F00B2
:1057B00000000140941500208800002008B500BFBB
:1057C000002000901148006840F480400F490860B4
:1057D0000846006800F48040009000BF00BF00BF92
:1057E00000200090081F006840F08050091F0860EA
:1057F0000846006800F08050009000BF00BF002203
:105800000F21901E00F014F808BD0000443802403B
:1058100001460846002809DB00F01F0301229A40D8
:1058200043099B0003F1E023C3F8002100BF704748
:105830002DE9F05F80460D46164600270BF06AFA08
:10584000074639462A46334601F00700C0F1070AE9
:10585000BAF1040F02D94FF0040A01E0C0F1070ABF
:10586000D14600F1040ABAF1070F02D24FF0000A44
:1058700001E0A0F1030AD4464FF0010A0AFA09FA3E
:10588000AAF1010A0AEA020A0AFA0CFA4FF0010B1D
:105890000BFA0CFBABF1010B0BEA030B4AEA0B040E
:1058A000214640460BF03EFABDE8F09F00BF00F0F5
:1058B0000702064B19684FF6FF031940044B0B43D0
:1058C00043EA0221014B196000BF70470CED00E074
:1058D0000000FA05704702461068416200207047D8
:1058E000F0B5034615461868446A21B944EA0540F4
:1058F0001E68B06219E01868806A04EB1044002248
:1059000008E0186800F5827050F8220004EB10449B
:10591000501CC2B2481E9042F3D844EA05471868AA
:1059200000F582704E1E40F826700020F0BD10B5C4
:105930000446D4F8080509F0B8F910BD70B504465E
:105940000D4605EBC50304F13C0101EB83010A6937
:105950002946D4F8080509F0A3F870BD70B50446CF
:105960000D4605EBC50304F51F7101EB83010A69C0
:105970002946D4F8080509F017F970BD10B504469A
:10598000D4F8080509F094F910BD2DE9F04104465A
:105990000D4605F08000802808D105F00F0000EBCF
:1059A000C00104F13C0000EB810607E005F00F00A8
:1059B00000EBC00104F51F7000EB81063146206842
:1059C0000AF068FC07463846BDE8F08170B5044629
:1059D0000E4606F0800080280AD106F00F0000EB8A
:1059E000C00104F13C0000EB81050120687009E072
:1059F00006F00F0000EBC00104F51F7000EB8105FD
:105A00000020687006F00F00287000BF94F8BC04F6
:105A1000012801D1022070BD012084F8BC0400BF20
:105A20002946206809F016FF00BF002084F8BC0456
:105A300000BF00BFEFE770B504460E4606F00F004A
:105A40006168884201D9012070BD06F0800080287D
:105A50000AD106F00F0000EBC00104F13C0000EB9E
:105A600081050120687009E006F00F0000EBC0011D
:105A700004F51F7000EB8105002068700020A870FD
:105A800006F00F00287000BF94F8BC04012801D173
:105A90000220D9E7012084F8BC0400BF2946206811
:105AA0000AF0C0F900BF002084F8BC0400BF00BFAA
:105AB000CAE7024601F00F0000EBC00302F51F70B9
:105AC00000EB8300006A70472DE9F04705460E465B
:105AD00090461F464FF0000906F0800080280AD14A
